:020000000F28C7
:10000800DE00030E8312BB000408BC000A08BD0012
:100018005F08BE0091291028E721CD00E821CE0015
:10002800E921CF008313203084003A30D821CC0155
:1000380083011E28FF238316900083169901073039
:10004800831299008B018B161C308316850083124E
:1000580085018316961583129F171F139F151F116D
:1000680083161F139F121F169F151F1583121F1427
:100078008316811281110111811001148B178312CB
:100088009F149F1845281E08B00083161E08831267
:10009800AF00CC1C602885163208803ADF0080301B
:1000A8005F02031D592829303102031C712883126D
:1000B800B101B201CC10712885124E08803AC500F2
:1000C8003208803A4502031D6B2831084D02031897
:1000D80071288312B101B201CC1465308312380241
:1000E800031C4D28B8019F151F15000000000000D3
:1000F800000083129F149F187F281E08AE008316E5
:100108001E088312AD009F151F118B130508C5002B
:100118004508B600CB014F084B020318A62801304A
:100128008500000000000000000000000000000042
:10013800000000000230831285000130C500450828
:10014800CB078F288B170230C5004508B700370842
:10015800031DAB288B139F149F18B02800000000C4
:1001680083129F141E08C5004508B40083161E0894
:100178008312C5004508B3009F18C02836088500BB
:100188008B172F09C5003009C600C50A0319C60A0E
:1001980045083307AB0046080318460A3407AC0085
:1001A8002F09C5003009C600C50A0319C60A450843
:1001B80083161E078312C70046080318460A1E073F
:1001C800C8004708A9004808AA002008A300210879
:1001D800A4002208A5002C08C0002B08BF002C088A
:1001E800C2002B08C100B62183123F08C500400891
:1001F800C6002A08C0002908BF002A08C20029082A
:10020800C100B62183123F084507C70040080318FC
:10021800400A4607C8004708A0004808A100003067
:10022800C81BFF30A20025082202031D212924082B
:100238002102031D21292308200203182F2923083E
:10024800C5002408C6002508C7002009C8002109E0
:10025800C9002209462922082502031D3929210837
:100268002402031D392920082302031860292008C5
:10027800C5002108C6002208C7002309C8002409B0
:10028800C9002509CA00C80A0319C90A0319CA0AF4
:100298004808C50749080318490F53295429C607B0
:1002A8004A0803184A0F59295A29C7074508A600BA
:1002B8004608A700470865290030A6000030A700B7
:1002C8000030A8002608C5002708C6002808C7006F
:1002D80004300310C70CC60CC50CFF3E031D6D2966
:1002E8002D08C8002E08C9000030C91BFF30CA00FD
:1002F80047084A02031D862946084902031D862924
:100308004508480203188C29A030CD0000308F29F9
:10031800C030CD000330CE004D280B1DA4290B1191
:1003280081010130B1070318B20A0030B207013069
:10033800BA003A08B80737080319A4290130B702E8
:100348000B1CAB29851DAA290430CC060B103E08CE
:10035800DF003D088A003C0884003B0E8300DE0E67
:100368005E0E09008312C301C4013F1CC129410864
:10037800C3070318C40A4208C40701300310C10D9B
:10038800C20DFF3E031DC22901300310C00CBF0C73
:10039800FF3E031DC9293F084004031DB92944082D
:1003A800C0004308BF00080064008001840A0406F6
:1003B800031900340406D92901308A000408840A84
:0C03C800820700340434C03403340634CF
:02400E009431EB
:00000001FF
